{
  "contractName": "RentalAgreement",
  "abi": [
    {
      "inputs": [
        {
          "internalType": "uint256",
          "name": "",
          "type": "uint256"
        }
      ],
      "name": "agreements",
      "outputs": [
        {
          "components": [
            {
              "internalType": "address",
              "name": "walletAddress",
              "type": "address"
            },
            {
              "internalType": "string",
              "name": "firstName",
              "type": "string"
            },
            {
              "internalType": "string",
              "name": "lastName",
              "type": "string"
            },
            {
              "internalType": "bool",
              "name": "blacklisted",
              "type": "bool"
            }
          ],
          "internalType": "struct RentalAgreement.Tenant",
          "name": "tenant",
          "type": "tuple"
        },
        {
          "components": [
            {
              "internalType": "address",
              "name": "owner",
              "type": "address"
            },
            {
              "internalType": "string",
              "name": "propertyType",
              "type": "string"
            },
            {
              "internalType": "bool",
              "name": "blacklisted",
              "type": "bool"
            },
            {
              "internalType": "bool",
              "name": "active",
              "type": "bool"
            }
          ],
          "internalType": "struct RentalAgreement.Ownership",
          "name": "property",
          "type": "tuple"
        },
        {
          "internalType": "uint256",
          "name": "rentStartDate",
          "type": "uint256"
        },
        {
          "internalType": "uint256",
          "name": "rentEndDate",
          "type": "uint256"
        },
        {
          "internalType": "bool",
          "name": "active",
          "type": "bool"
        }
      ],
      "stateMutability": "view",
      "type": "function"
    },
    {
      "inputs": [
        {
          "internalType": "address",
          "name": "",
          "type": "address"
        }
      ],
      "name": "propertyOwners",
      "outputs": [
        {
          "internalType": "address",
          "name": "owner",
          "type": "address"
        },
        {
          "internalType": "string",
          "name": "propertyType",
          "type": "string"
        },
        {
          "internalType": "bool",
          "name": "blacklisted",
          "type": "bool"
        },
        {
          "internalType": "bool",
          "name": "active",
          "type": "bool"
        }
      ],
      "stateMutability": "view",
      "type": "function"
    },
    {
      "inputs": [
        {
          "internalType": "address",
          "name": "",
          "type": "address"
        }
      ],
      "name": "tenants",
      "outputs": [
        {
          "internalType": "address",
          "name": "walletAddress",
          "type": "address"
        },
        {
          "internalType": "string",
          "name": "firstName",
          "type": "string"
        },
        {
          "internalType": "string",
          "name": "lastName",
          "type": "string"
        },
        {
          "internalType": "bool",
          "name": "blacklisted",
          "type": "bool"
        }
      ],
      "stateMutability": "view",
      "type": "function"
    },
    {
      "inputs": [
        {
          "internalType": "address",
          "name": "walletAddress",
          "type": "address"
        },
        {
          "internalType": "string",
          "name": "firstName",
          "type": "string"
        },
        {
          "internalType": "string",
          "name": "lastName",
          "type": "string"
        }
      ],
      "name": "addTenant",
      "outputs": [],
      "stateMutability": "nonpayable",
      "type": "function"
    },
    {
      "inputs": [
        {
          "internalType": "string",
          "name": "propertyType",
          "type": "string"
        }
      ],
      "name": "addProperty",
      "outputs": [],
      "stateMutability": "nonpayable",
      "type": "function"
    },
    {
      "inputs": [
        {
          "internalType": "address",
          "name": "tenantAddress",
          "type": "address"
        },
        {
          "internalType": "address",
          "name": "propertyOwnerAddress",
          "type": "address"
        },
        {
          "internalType": "uint256",
          "name": "rentStart",
          "type": "uint256"
        },
        {
          "internalType": "uint256",
          "name": "rentEnd",
          "type": "uint256"
        }
      ],
      "name": "startAgreement",
      "outputs": [],
      "stateMutability": "nonpayable",
      "type": "function"
    },
    {
      "inputs": [
        {
          "internalType": "address",
          "name": "tenantAddress",
          "type": "address"
        }
      ],
      "name": "addTenantToBlacklist",
      "outputs": [],
      "stateMutability": "nonpayable",
      "type": "function"
    },
    {
      "inputs": [
        {
          "internalType": "address",
          "name": "propertyOwnerAddress",
          "type": "address"
        }
      ],
      "name": "addPropertyOwnerToBlacklist",
      "outputs": [],
      "stateMutability": "nonpayable",
      "type": "function"
    },
    {
      "inputs": [
        {
          "internalType": "uint256",
          "name": "agreementIndex",
          "type": "uint256"
        }
      ],
      "name": "endAgreement",
      "outputs": [],
      "stateMutability": "nonpayable",
      "type": "function"
    }
  ],
  "bytecode": "0x608060405234801561000f575f80fd5b50611d6b8061001d5f395ff3fe608060405234801561000f575f80fd5b5060043610610091575f3560e01c8063b48cc6e511610064578063b48cc6e51461011c578063ba1e189814610138578063bd14de9614610154578063f70556d414610188578063fd9153a3146101a457610091565b80635dfd191d1461009557806365851f21146100b1578063771c6f07146100cd578063a2762bc214610100575b5f80fd5b6100af60048036038101906100aa91906111f4565b6101d7565b005b6100cb60048036038101906100c6919061135b565b6102a5565b005b6100e760048036038101906100e291906111f4565b61036b565b6040516100f79493929190611486565b60405180910390f35b61011a60048036038101906101159190611503565b610455565b005b6101366004803603810190610131919061152e565b6105c9565b005b610152600480360381019061014d91906111f4565b610698565b005b61016e60048036038101906101699190611503565b610766565b60405161017f9594939291906116b1565b60405180910390f35b6101a2600480360381019061019d9190611710565b610a6d565b005b6101be60048036038101906101b991906111f4565b611026565b6040516101ce9493929190611774565b60405180910390f35b8073ffffffffffffffffffffffffffffffffffffffff163373ffffffffffffffffffffffffffffffffffffffff1603610245576040517f08c379a000000000000000000000000000000000000000000000000000000000815260040161023c9061180f565b60405180910390fd5b5f60015f8373ffffffffffffffffffffffffffffffffffffffff1673ffffffffffffffffffffffffffffffffffffffff1681526020019081526020015f2090506001816003015f6101000a81548160ff0219169083151502179055505050565b5f60015f3373ffffffffffffffffffffffffffffffffffffffff1673ffffffffffffffffffffffffffffffffffffffff1681526020019081526020015f20905083815f015f6101000a81548173ffffffffffffffffffffffffffffffffffffffff021916908373ffffffffffffffffffffffffffffffffffffffff160217905550828160010190816103379190611a27565b50818160020190816103499190611a27565b505f816003015f6101000a81548160ff02191690831515021790555050505050565b6002602052805f5260405f205f91509050805f015f9054906101000a900473ffffffffffffffffffffffffffffffffffffffff16908060010180546103af9061185a565b80601f01602080910402602001604051908101604052809291908181526020018280546103db9061185a565b80156104265780601f106103fd57610100808354040283529160200191610426565b820191905f5260205f20905b81548152906001019060200180831161040957829003601f168201915b505050505090806002015f9054906101000a900460ff16908060020160019054906101000a900460ff16905084565b5f80549050811061049b576040517f08c379a000000000000000000000000000000000000000000000000000000000815260040161049290611b40565b60405180910390fd5b5f8082815481106104af576104ae611b5e565b5b905f5260205f2090600a02019050805f015f015f9054906101000a900473ffffffffffffffffffffffffffffffffffffffff1673ffffffffffffffffffffffffffffffffffffffff163373ffffffffffffffffffffffffffffffffffffffff16148061056b5750806004015f015f9054906101000a900473ffffffffffffffffffffffffffffffffffffffff1673ffffffffffffffffffffffffffffffffffffffff163373ffffffffffffffffffffffffffffffffffffffff16145b6105aa576040517f08c379a00000000000000000000000000000000000000000000000000000000081526004016105a190611bfb565b60405180910390fd5b5f816009015f6101000a81548160ff0219169083151502179055505050565b5f60025f3373ffffffffffffffffffffffffffffffffffffffff1673ffffffffffffffffffffffffffffffffffffffff1681526020019081526020015f20905033815f015f6101000a81548173ffffffffffffffffffffffffffffffffffffffff021916908373ffffffffffffffffffffffffffffffffffffffff1602179055508181600101908161065b9190611a27565b505f816002015f6101000a81548160ff02191690831515021790555060018160020160016101000a81548160ff0219169083151502179055505050565b8073ffffffffffffffffffffffffffffffffffffffff163373ffffffffffffffffffffffffffffffffffffffff1603610706576040517f08c379a00000000000000000000000000000000000000000000000000000000081526004016106fd9061180f565b60405180910390fd5b5f60025f8373ffffffffffffffffffffffffffffffffffffffff1673ffffffffffffffffffffffffffffffffffffffff1681526020019081526020015f2090506001816002015f6101000a81548160ff0219169083151502179055505050565b5f8181548110610774575f80fd5b905f5260205f2090600a02015f91509050805f016040518060800160405290815f82015f9054906101000a900473ffffffffffffffffffffffffffffffffffffffff1673ffffffffffffffffffffffffffffffffffffffff1673ffffffffffffffffffffffffffffffffffffffff1681526020016001820180546107f79061185a565b80601f01602080910402602001604051908101604052809291908181526020018280546108239061185a565b801561086e5780601f106108455761010080835404028352916020019161086e565b820191905f5260205f20905b81548152906001019060200180831161085157829003601f168201915b505050505081526020016002820180546108879061185a565b80601f01602080910402602001604051908101604052809291908181526020018280546108b39061185a565b80156108fe5780601f106108d5576101008083540402835291602001916108fe565b820191905f5260205f20905b8154815290600101906020018083116108e157829003601f168201915b50505050508152602001600382015f9054906101000a900460ff16151515158152505090806004016040518060800160405290815f82015f9054906101000a900473ffffffffffffffffffffffffffffffffffffffff1673ffffffffffffffffffffffffffffffffffffffff1673ffffffffffffffffffffffffffffffffffffffff1681526020016001820180546109959061185a565b80601f01602080910402602001604051908101604052809291908181526020018280546109c19061185a565b8015610a0c5780601f106109e357610100808354040283529160200191610a0c565b820191905f5260205f20905b8154815290600101906020018083116109ef57829003601f168201915b50505050508152602001600282015f9054906101000a900460ff161515151581526020016002820160019054906101000a900460ff16151515158152505090806007015490806008015490806009015f9054906101000a900460ff16905085565b808210610aaf576040517f08c379a0000000000000000000000000000000000000000000000000000000008152600401610aa690611c89565b60405180910390fd5b5f60015f8673ffffffffffffffffffffffffffffffffffffffff1673ffffffffffffffffffffffffffffffffffffffff1681526020019081526020015f2090505f60025f8673ffffffffffffffffffffffffffffffffffffffff1673ffffffffffffffffffffffffffffffffffffffff1681526020019081526020015f209050816003015f9054906101000a900460ff16158015610b5b5750806002015f9054906101000a900460ff16155b610b9a576040517f08c379a0000000000000000000000000000000000000000000000000000000008152600401610b9190611d17565b60405180910390fd5b5f6040518060a00160405280846040518060800160405290815f82015f9054906101000a900473ffffffffffffffffffffffffffffffffffffffff1673ffffffffffffffffffffffffffffffffffffffff1673ffffffffffffffffffffffffffffffffffffffff168152602001600182018054610c169061185a565b80601f0160208091040260200160405190810160405280929190818152602001828054610c429061185a565b8015610c8d5780601f10610c6457610100808354040283529160200191610c8d565b820191905f5260205f20905b815481529060010190602001808311610c7057829003601f168201915b50505050508152602001600282018054610ca69061185a565b80601f0160208091040260200160405190810160405280929190818152602001828054610cd29061185a565b8015610d1d5780601f10610cf457610100808354040283529160200191610d1d565b820191905f5260205f20905b815481529060010190602001808311610d0057829003601f168201915b50505050508152602001600382015f9054906101000a900460ff1615151515815250508152602001836040518060800160405290815f82015f9054906101000a900473ffffffffffffffffffffffffffffffffffffffff1673ffffffffffffffffffffffffffffffffffffffff1673ffffffffffffffffffffffffffffffffffffffff168152602001600182018054610db59061185a565b80601f0160208091040260200160405190810160405280929190818152602001828054610de19061185a565b8015610e2c5780601f10610e0357610100808354040283529160200191610e2c565b820191905f5260205f20905b815481529060010190602001808311610e0f57829003601f168201915b50505050508152602001600282015f9054906101000a900460ff161515151581526020016002820160019054906101000a900460ff16151515158152505081526020018681526020018581526020016001151581525090505f81908060018154018082558091505060019003905f5260205f2090600a02015f909190919091505f820151815f015f820151815f015f6101000a81548173ffffffffffffffffffffffffffffffffffffffff021916908373ffffffffffffffffffffffffffffffffffffffff1602179055506020820151816001019081610f0c9190611a27565b506040820151816002019081610f229190611a27565b506060820151816003015f6101000a81548160ff02191690831515021790555050506020820151816004015f820151815f015f6101000a81548173ffffffffffffffffffffffffffffffffffffffff021916908373ffffffffffffffffffffffffffffffffffffffff1602179055506020820151816001019081610fa69190611a27565b506040820151816002015f6101000a81548160ff02191690831515021790555060608201518160020160016101000a81548160ff021916908315150217905550505060408201518160070155606082015181600801556080820151816009015f6101000a81548160ff021916908315150217905550505050505050505050565b6001602052805f5260405f205f91509050805f015f9054906101000a900473ffffffffffffffffffffffffffffffffffffffff169080600101805461106a9061185a565b80601f01602080910402602001604051908101604052809291908181526020018280546110969061185a565b80156110e15780601f106110b8576101008083540402835291602001916110e1565b820191905f5260205f20905b8154815290600101906020018083116110c457829003601f168201915b5050505050908060020180546110f69061185a565b80601f01602080910402602001604051908101604052809291908181526020018280546111229061185a565b801561116d5780601f106111445761010080835404028352916020019161116d565b820191905f5260205f20905b81548152906001019060200180831161115057829003601f168201915b505050505090806003015f9054906101000a900460ff16905084565b5f604051905090565b5f80fd5b5f80fd5b5f73ffffffffffffffffffffffffffffffffffffffff82169050919050565b5f6111c38261119a565b9050919050565b6111d3816111b9565b81146111dd575f80fd5b50565b5f813590506111ee816111ca565b92915050565b5f6020828403121561120957611208611192565b5b5f611216848285016111e0565b91505092915050565b5f80fd5b5f80fd5b5f601f19601f8301169050919050565b7f4e487b71000000000000000000000000000000000000000000000000000000005f52604160045260245ffd5b61126d82611227565b810181811067ffffffffffffffff8211171561128c5761128b611237565b5b80604052505050565b5f61129e611189565b90506112aa8282611264565b919050565b5f67ffffffffffffffff8211156112c9576112c8611237565b5b6112d282611227565b9050602081019050919050565b828183375f83830152505050565b5f6112ff6112fa846112af565b611295565b90508281526020810184848401111561131b5761131a611223565b5b6113268482856112df565b509392505050565b5f82601f8301126113425761134161121f565b5b81356113528482602086016112ed565b91505092915050565b5f805f6060848603121561137257611371611192565b5b5f61137f868287016111e0565b935050602084013567ffffffffffffffff8111156113a05761139f611196565b5b6113ac8682870161132e565b925050604084013567ffffffffffffffff8111156113cd576113cc611196565b5b6113d98682870161132e565b9150509250925092565b6113ec816111b9565b82525050565b5f81519050919050565b5f82825260208201905092915050565b5f5b8381101561142957808201518184015260208101905061140e565b5f8484015250505050565b5f61143e826113f2565b61144881856113fc565b935061145881856020860161140c565b61146181611227565b840191505092915050565b5f8115159050919050565b6114808161146c565b82525050565b5f6080820190506114995f8301876113e3565b81810360208301526114ab8186611434565b90506114ba6040830185611477565b6114c76060830184611477565b95945050505050565b5f819050919050565b6114e2816114d0565b81146114ec575f80fd5b50565b5f813590506114fd816114d9565b92915050565b5f6020828403121561151857611517611192565b5b5f611525848285016114ef565b91505092915050565b5f6020828403121561154357611542611192565b5b5f82013567ffffffffffffffff8111156115605761155f611196565b5b61156c8482850161132e565b91505092915050565b61157e816111b9565b82525050565b5f82825260208201905092915050565b5f61159e826113f2565b6115a88185611584565b93506115b881856020860161140c565b6115c181611227565b840191505092915050565b6115d58161146c565b82525050565b5f608083015f8301516115f05f860182611575565b50602083015184820360208601526116088282611594565b915050604083015184820360408601526116228282611594565b915050606083015161163760608601826115cc565b508091505092915050565b5f608083015f8301516116575f860182611575565b506020830151848203602086015261166f8282611594565b915050604083015161168460408601826115cc565b50606083015161169760608601826115cc565b508091505092915050565b6116ab816114d0565b82525050565b5f60a0820190508181035f8301526116c981886115db565b905081810360208301526116dd8187611642565b90506116ec60408301866116a2565b6116f960608301856116a2565b6117066080830184611477565b9695505050505050565b5f805f806080858703121561172857611727611192565b5b5f611735878288016111e0565b9450506020611746878288016111e0565b9350506040611757878288016114ef565b9250506060611768878288016114ef565b91505092959194509250565b5f6080820190506117875f8301876113e3565b81810360208301526117998186611434565b905081810360408301526117ad8185611434565b90506117bc6060830184611477565b95945050505050565b7f596f752063616e6e6f7420626c61636b6c69737420796f757273656c662e00005f82015250565b5f6117f9601e836113fc565b9150611804826117c5565b602082019050919050565b5f6020820190508181035f830152611826816117ed565b9050919050565b7f4e487b71000000000000000000000000000000000000000000000000000000005f52602260045260245ffd5b5f600282049050600182168061187157607f821691505b6020821081036118845761188361182d565b5b50919050565b5f819050815f5260205f209050919050565b5f6020601f8301049050919050565b5f82821b905092915050565b5f600883026118e67fffffffffffffffffffffffffffffffffffffffffffffffffffffffffffffffff826118ab565b6118f086836118ab565b95508019841693508086168417925050509392505050565b5f819050919050565b5f61192b611926611921846114d0565b611908565b6114d0565b9050919050565b5f819050919050565b61194483611911565b61195861195082611932565b8484546118b7565b825550505050565b5f90565b61196c611960565b61197781848461193b565b505050565b5b8181101561199a5761198f5f82611964565b60018101905061197d565b5050565b601f8211156119df576119b08161188a565b6119b98461189c565b810160208510156119c8578190505b6119dc6119d48561189c565b83018261197c565b50505b505050565b5f82821c905092915050565b5f6119ff5f19846008026119e4565b1980831691505092915050565b5f611a1783836119f0565b9150826002028217905092915050565b611a30826113f2565b67ffffffffffffffff811115611a4957611a48611237565b5b611a53825461185a565b611a5e82828561199e565b5f60209050601f831160018114611a8f575f8415611a7d578287015190505b611a878582611a0c565b865550611aee565b601f198416611a9d8661188a565b5f5b82811015611ac457848901518255600182019150602085019450602081019050611a9f565b86831015611ae15784890151611add601f8916826119f0565b8355505b6001600288020188555050505b505050505050565b7f496e76616c69642061677265656d656e7420696e6465782e00000000000000005f82015250565b5f611b2a6018836113fc565b9150611b3582611af6565b602082019050919050565b5f6020820190508181035f830152611b5781611b1e565b9050919050565b7f4e487b71000000000000000000000000000000000000000000000000000000005f52603260045260245ffd5b7f4f6e6c792074656e616e74206f722070726f7065727479206f776e65722063615f8201527f6e20656e64207468652061677265656d656e742e000000000000000000000000602082015250565b5f611be56034836113fc565b9150611bf082611b8b565b604082019050919050565b5f6020820190508181035f830152611c1281611bd9565b9050919050565b7f52656e742073746172742064617465206d757374206265206265666f726520745f8201527f68652072656e7420656e6420646174652e000000000000000000000000000000602082015250565b5f611c736031836113fc565b9150611c7e82611c19565b604082019050919050565b5f6020820190508181035f830152611ca081611c67565b9050919050565b7f54656e616e74206f722070726f7065727479206f776e657220697320626c61635f8201527f6b6c69737465642e000000000000000000000000000000000000000000000000602082015250565b5f611d016028836113fc565b9150611d0c82611ca7565b604082019050919050565b5f6020820190508181035f830152611d2e81611cf5565b905091905056fea264697066735822122040101a694d5092fb194659fd0252fb1f315e2a8b291676d8874ba3fd96a24b9f64736f6c63430008150033",
  "immutableReferences": {},
  "source": "// SPDX-License-Identifier: MIT\npragma solidity ^0.8.0;\n\ncontract RentalAgreement {\n    struct Tenant {\n        address walletAddress;\n        string firstName;\n        string lastName;\n        bool blacklisted;\n    }\n\n    struct Ownership {\n        address owner;\n        string propertyType;\n        bool blacklisted;\n        bool active;\n    }\n\n    struct Agreement {\n        Tenant tenant;\n        Ownership property;\n        uint rentStartDate;\n        uint rentEndDate;\n        bool active;\n    }\n\n    Agreement[] public agreements;\n    mapping(address => Tenant) public tenants;\n    mapping(address => Ownership) public propertyOwners;\n\n    function addTenant(\n        address walletAddress,\n        string memory firstName,\n        string memory lastName\n    ) public {\n        Tenant storage tenant = tenants[msg.sender];\n        tenant.walletAddress = walletAddress;\n        tenant.firstName = firstName;\n        tenant.lastName = lastName;\n        tenant.blacklisted = false;\n    }\n\n    function addProperty(string memory propertyType) public {\n        Ownership storage property = propertyOwners[msg.sender];\n        property.owner = msg.sender;\n        property.propertyType = propertyType;\n        property.blacklisted = false;\n        property.active = true;\n    }\n\n    function startAgreement(\n        address tenantAddress,\n        address propertyOwnerAddress,\n        uint rentStart,\n        uint rentEnd\n    ) public {\n        require(\n            rentStart < rentEnd,\n            \"Rent start date must be before the rent end date.\"\n        );\n\n        Tenant storage tenant = tenants[tenantAddress];\n        Ownership storage property = propertyOwners[propertyOwnerAddress];\n        require(\n            !tenant.blacklisted && !property.blacklisted,\n            \"Tenant or property owner is blacklisted.\"\n        );\n\n        Agreement memory newAgreement = Agreement({\n            tenant: tenant,\n            property: property,\n            rentStartDate: rentStart,\n            rentEndDate: rentEnd,\n            active: true\n        });\n        agreements.push(newAgreement);\n    }\n\n    function addTenantToBlacklist(address tenantAddress) public {\n        require(msg.sender != tenantAddress, \"You cannot blacklist yourself.\");\n        Tenant storage tenant = tenants[tenantAddress];\n        tenant.blacklisted = true;\n    }\n\n    function addPropertyOwnerToBlacklist(address propertyOwnerAddress) public {\n        require(\n            msg.sender != propertyOwnerAddress,\n            \"You cannot blacklist yourself.\"\n        );\n        Ownership storage property = propertyOwners[propertyOwnerAddress];\n        property.blacklisted = true;\n    }\n\n    function endAgreement(uint agreementIndex) public {\n        require(agreementIndex < agreements.length, \"Invalid agreement index.\");\n        Agreement storage agreement = agreements[agreementIndex];\n        require(\n            msg.sender == agreement.tenant.walletAddress ||\n                msg.sender == agreement.property.owner,\n            \"Only tenant or property owner can end the agreement.\"\n        );\n        agreement.active = false;\n    }\n}\n",
  "sourcePath": "/Users/gurgen-dyorex/Documents/GitHub/ParibuHubSmartContractSolidityBootcamp/contracts/RentalContract.sol",
  "compiler": {
    "name": "solc",
    "version": "0.8.21+commit.d9974bed.Emscripten.clang"
  },
  "schemaVersion": "3.4.16",
  "updatedAt": "2023-10-25T20:22:24.358Z",
  "devdoc": {
    "kind": "dev",
    "methods": {},
    "version": 1
  },
  "userdoc": {
    "kind": "user",
    "methods": {},
    "version": 1
  }
}